:020000040800F2
:1000000000500020651C0008B11B0008B71B000849
:1000100000000000000000000000000000000000E0
:10002000000000000000000000000000BD1B0008F0
:100030000000000000000000C71B0008D11B0008E2
:10004000B51C0008B51C0008E11B0008B51C000821
:10005000B51C0008F91B0008B51C00080F1C00089F
:10006000B51C0008B51C0008B51C0008B51C00082C
:10007000B51C0008B51C0008B51C0008291C0008A8
:10008000B51C0008B51C0008B51C000800000000E5
:10009000B51C0008B51C0008B51C0008B51C0008FC
:1000A000B51C0008B51C0008B51C0008B51C0008EC
:1000B000411C0008B51C000800000000B51C000829
:1000C00010B5064C2378002B07D1054B002B02D02E
:1000D000044800E000BF0123237010BD0C00002085
:1000E0000000000090580008044B10B5002B03D00E
:1000F0000349044800E000BF10BDC04600000000F6
:100100001000002090580008002243088B4274D34E
:1001100003098B425FD3030A8B4244D3030B8B4208
:1001200028D3030C8B420DD3FF22090212BA030C11
:100130008B4202D31212090265D0030B8B4219D3F2
:1001400000E0090AC30B8B4201D3CB03C01A524112
:10015000830B8B4201D38B03C01A5241430B8B425A
:1001600001D34B03C01A5241030B8B4201D30B0343
:10017000C01A5241C30A8B4201D3CB02C01A52416A
:10018000830A8B4201D38B02C01A5241430A8B422D
:1001900001D34B02C01A5241030A8B4201D30B0216
:1001A000C01A5241CDD2C3098B4201D3CB01C01A30
:1001B000524183098B4201D38B01C01A524143093A
:1001C0008B4201D34B01C01A524103098B4201D328
:1001D0000B01C01A5241C3088B4201D3CB00C01A95
:1001E000524183088B4201D38B00C01A524143080D
:1001F0008B4201D34B00C01A5241411A00D2014632
:10020000524110467047FFE701B5002000F006F8A4
:1002100002BDC0460029F7D076E770477047C04658
:10022000002B11D1002A0FD1002900D1002802D0C3
:100230000021C943080007B4024802A140180290F7
:1002400003BDC046D9FFFFFF03B4684601B502985D
:1002500000F034F8019B9E4602B00CBC7047C046CB
:10026000F0B5CE46474680B5070099463B0C9C4604
:1002700013041B0C1D000E0061460004140C000C3E
:1002800045434B4360436143C0182C0C20188C46F7
:10029000834203D980235B029846C444494679438C
:1002A0007243030C63442D042D0CC918000440193B
:1002B0008918C0BCB946B046F0BDC046F0B5574637
:1002C0004E464546DE46E0B504000D00924699468E
:1002D00083B08B4230D82DD04946504600F066FEA0
:1002E00029000600200000F061FE331A9846203BEA
:1002F0009B4633D45A465346934042461F005346CA
:1003000093401E00AF423AD8AF4200D178E05B463E
:10031000A41BBD41002B00DA75E0002200230092EF
:10032000019301235A46934001930123424693408F
:10033000009328E08242CFD900220023009201934B
:100340000C9B002B01D01C605D600098019903B0EC
:10035000F0BCBB46B246A946A046F0BD42462023AB
:100360009B1A5246DA40414613004A468A4017001B
:1003700042461F43534693401E00AF42C4D9002259
:100380000023009201934346002BD9D0FB0772084B
:100390001A4346467B080EE0AB4201D1A2420CD87C
:1003A000A41A9D41012024196D410021013E241809
:1003B0004D41002E06D0AB42EED9013E24196D41CD
:1003C000002EF8D1009801995B4600196941002B75
:1003D00024DB2B005A464446D3402A00E2401C004E
:1003E0005B461500002B2ADB26009E4033002600CA
:1003F0004746BE403200801A9941009001919FE724
:10040000A342BCD883E74246202300219B1A002246
:10041000009101920122DA40019286E742462023B0
:100420009B1A2A0046469A402300F3404446134351
:100430002A00E2401C005B461500002BD4DA42463D
:100440002F002023260097409B1ADE403B003343B9
:10045000CDE7C046F0B5C64643025B0A4E024500F2
:100460004F00DA00C40F9C46700A904600B52D0E6E
:100470003F0EC90FB6098C424BD0EA1B002A36DD6D
:10048000002F61D0FF2D00D1ADE08023DB041E439F
:100490001B2A00DCD3E001204346181A430100D494
:1004A0008CE080018709380000F062FD0538874044
:1004B000854200DCB6E02D1AB3483840430704D02B
:1004C0000F230340042B00D00430430100D478E014
:1004D0006A1CFE2D65D08001430A9C46D2B2634659
:1004E000D0051843E407204380BCB846F0BD002A7D
:1004F00035D07A1B002D00D0AFE04346002B00D151
:10050000A7E0531E012A00D12FE1FF2A69D01A006B
:10051000AAE0E91B002970DD002F37D0FF2D62D043
:100520008023DB041E431B2900DCB0E00120404493
:10053000430143D50135FF2D33D00123934A0340B6
:10054000400810401843B9E7002E00D183E0511E47
:10055000012A00D1D8E0FF2A45D00A0098E7FE27FB
:100560006A1C174200D086E0002D00D0B7E0434659
:10057000002B00D1F3E00022002EB0D0981B4301E5
:1005800000D4FAE043460C00F01A97E7002E00D1A1
:10059000C8E04A1E012900D1AEE0FF2923D0110096
:1005A000C1E70023FF229C4699E7FE216A1C114205
:1005B00077D0FF2AF5D0150046447008430700D0D5
:1005C0007EE7C308FF2D0ED05B025B0A9C46EAB2B1
:1005D00085E7002E07D08022D203134203D01042B9
:1005E00001D10C000300002BDBD08020C003184396
:1005F0004002430A9C46FF2271E70029D5D07A1BAE
:10060000002D60D14346002B24D0531E012A73D005
:10061000FF2AE7D01A001B2A00DC85E001203D00FC
:10062000801985E720233A00451B38000135EA4050
:100630005D1BA840431E9841002510433EE7202340
:1006400030009B1A31009840D140431E9841084326
:1006500022E70C0003001500B4E7FF2FC1D0802370
:100660004046DB04184380461B2A51DD01200C0064
:100670003D00301A12E743469F1B7B012BD4002F0D
:1006800000D010E70023002400229C4627E7202307
:1006900032003000CA40591A8840431E9841104326
:1006A00045E7002D4AD14346002B63D00022002E9F
:1006B00000D114E730004044430100D47EE7324BC0
:1006C000013518407AE7FF2F8CD080234146DB04A8
:1006D000194388469FE743460C00F71AE3E6424673
:1006E000002A00D075E7002E00D07AE78023DB03D4
:1006F00000249C46FF22F2E63000404401254301DD
:1007000000D45BE7022518E743460125981BC5E6A0
:10071000202344464046D4409A1A9040431E9841B4
:100720002043A4E70D004DE7202341464046D14039
:100730009A1A9040431E9841084370E74246002AA7
:1007400000D14FE7002E00D14DE78022D2031342A3
:1007500000D148E7104200D045E7030043E7002EF0
:1007600090D00C0084460022B9E643460C00F01AF3
:10077000013593E684460022B1E6002800D01DE74B
:10078000002300249C46AAE6FFFFFFFBFFFFFF7D3E
:1007900070B5051E0ED000F0EBFB9E2304001B1A63
:1007A000962B0CDC082801DD083CA5406D026D0A83
:1007B000D8B201E000200025C005284370BD992B68
:1007C00009DD020029001B3291404A1E9141052299
:1007D000121AD5400D43052C12DC29000C4E314075
:1007E0006A0709D00F202840042805D004314A01A7
:1007F00002D59F2331401B1B89014D0AD8B2DBE78C
:10080000621F95402900024E31406A07F4D0E9E7A3
:10081000FFFFFFFBF0B557464E464546DE46E0B5C6
:10082000814605000C03480092461F0085B0240B4A
:10083000400DCE0F002800D156E1D44B984200D194
:1008400072E16B0FE4001C4380231B042343984692
:10085000CF4BED009B4600239946834400933C0315
:100860007B005046240B5B0DFF0F002B00D11FE1D6
:10087000C64A934200D162E1C549420F8C46E4006A
:1008800059461443802263441204CB1A14439B46F6
:10089000C200002033007B409A464B460F2B27D8DE
:1008A000BC499B00CB589F46B246009B022B16D0FA
:1008B000032B00D18EE2012B00D0D9E000230024CD
:1008C000002552461B052343D20713432800190075
:1008D00005B0F0BCBB46B246A946A046F0BD002418
:1008E0000025AA4BEDE7BA46A04615000090DCE7CC
:1008F000444500D2C7E100D1C2E101235B429C46DE
:100900002E0040460025E3442302140E1C431B0C1A
:10091000994623041F0C1202494600920197FFF7E3
:1009200079FC02007A430B04310C804619438A4259
:1009300007D901235B429C460919E0448C4200D848
:1009400007E2881A4946FFF765FC09048C46310422
:100950006646019A090C4243030031438A4204D996
:100960000919013B8C4200D8EDE1881A4246120475
:100970001A4390464146009B0E041B0C1F00029335
:10098000009B360C1B04190C0B007343120C7E43A6
:10099000039151437A431F0CBC4676186644B1421A
:1009A00003D9802149028C466244310C8A183104F3
:1009B0001E04360C8E19904202D312D1B54210D2C9
:1009C0004346591E009B9C4665441F009D429B4127
:1009D0005B421B19C018844200D2A0E100D19BE108
:1009E0008846AE1BB542AD41801A6D42401B844221
:1009F00000D1D5E14946FFF70DFC019A0B044243B3
:100A0000310C050019438A4200D96CE1881A494625
:100A1000FFF700FC019A360442430904360C030038
:100A20000E43B24200D953E10398B61A02002D04D6
:100A30001D43029F2B041B0C5A437B439C46290CED
:100A40004843130C844463447943984203D980207B
:100A5000400284466144180C12041B04120C411815
:100A60009B188E4200D2FFE000D1FAE001231D4323
:100A7000494A5A44002A00DCAAE06B0700D03DE155
:100A8000ED084346DB0106D54246444B1A409046EA
:100A90008022D2005A44424B9A4200DD1FE743466F
:100AA0005B071D43434652055C02240B530D08E7C8
:100AB0005246224300D17BE0002C00D1FAE0200016
:100AC00000F056FA02000B3A1D2301009B1A524611
:100AD0000839DA408C40144352468A40314B58441E
:100AE0009B4683440020D5E64B462343984644D09A
:100AF000002C00D1CEE0200000F03AFA0100020004
:100B00000B391D235B1A49461000D9400838844030
:100B10000B004D462343984685402348831A9B4645
:100B20000023994600939AE64B46234398461DD1ED
:100B300008239946063B0025834600938FE65246DC
:100B4000224309D1022349461943184B89469C4642
:100B500000240220E3449DE603234A461A43134B34
:100B600091469C4652460320E34493E60C23994663
:100B7000093BA0468346009371E60423994600236F
:100B80009B4601330025009369E6C046FF0700003D
:100B900001FCFFFFA8580008FF030000FFFFFFFE55
:100BA000FE070000F30300000DFCFFFF01F8FFFF4C
:100BB0004946012319438946002401206AE600239F
:100BC00080249A4600258A4B24037AE601256D424B
:100BD00001239B1A382B00DD70E61F2B00DCBFE0E1
:100BE0001F2149428A1A4146D1400A00202B04D0D5
:100BF0004146804B5B4499400D436B1E9D4107234A
:100C00002A431D0000241540134200D1D4E00F21D7
:100C100000231140042900D1CBE0111D91429241E3
:100C200052429B180A00190200D4C2E0012300249A
:100C3000002546E6802341461B03194208D01C428A
:100C400006D11C432403BA461500694B240B38E631
:100C50008024434624031C432403B246644B240BE4
:100C60002FE6002B00D103E7A619681EA64200D28A
:100C70008DE08E4200D2A3E000D1B3E00500F5E69E
:100C8000AA4200D939E64346DE0758086B081E43DE
:100C9000ED0739E6484600F06BF901000200153116
:100CA00020321C2900DC2CE74B4608388340002505
:100CB000984632E700F05CF903001A001532203044
:100CC0001C2A00DC00E75446083B00229C4005E754
:100CD0003619013BB44200D9A6E6B24200D8A3E6D9
:100CE000831E3619A0E60919013D8C4200D98DE614
:100CF0008A4200D88AE6851E091987E60F232B4011
:100D0000042B00D1BCE605235B42AB429B4104357A
:100D10005B42ED089844B4E6AF4200D960E68242F7
:100D200004D800D05CE6AE4200D859E602235B420C
:100D30009C46009BE0449C4665449D429B415B422F
:100D40001B19C0184DE68A4200D80EE6831E091909
:100D50000BE68A4200D8F4E5831E98460919F0E5AF
:100D60002549280059448D4042468A40691E8D41DC
:100D70004146D840D94002432A430B00510700D1D5
:100D800051E70F211140042900D046E74BE7050049
:100D90008E4200D06AE6009A934200D066E667E68B
:100DA000164A5A44002A00DC10E701230025984423
:100DB00067E65D075B021C0BD2080023154380E544
:100DC0000098023D42008242BF417F423C193619E1
:100DD0000092DDE78024434624031C432403044B94
:100DE000240B6EE5009A9A42EAD30500D3E7C04689
:100DF000FF0700003E0400001E040000FF03000087
:100E000070B5002816D0C317C5185D40C40F280060
:100E100000F0AEF8114A121A0A2816DC03002E0060
:100E200015339E400B23181AC54052052D032D0B78
:100E3000530D03E000240023002500261B052B434F
:100E4000E40723433000190070BD0B38854052057C
:100E50002D0300262D0B530DF0E7C0461E040000A5
:100E600002004B00F0B55B0D0C033D4E640A400FD1
:100E70005F1CC90F0443D50037420AD039481E18F9
:100E8000FE2E16DDFF200024C0052043C9070843BD
:100E9000F0BD002B06D12C4326D005229201540A26
:100EA000D8B2F1E72543EDD08020C0030443FF20F2
:100EB000EAE7002E1BDD9201531E9A41E4006D0FFC
:100EC00022432A43530748D00F231340042B00D05A
:100ED00004328023DB0413403FD0701CFE2ED1D09F
:100EE0009201540AC0B2CFE700200024CCE73200C0
:100EF000173222DB8020000420431E24A41B1F2C59
:100F00001DDD02225242961B0200F2401600202CE8
:100F100004D0154A94466344984005432A00531E62
:100F20009A41324300265307CED180241300E404B3
:100F3000012023402242D3D1B0E70023ADE70B4A82
:100F400094462A00E24014002A0063449A409840E4
:100F5000551EAA4102432243E4E733009EE7C04600
:100F6000FE07000080FCFFFFA2FCFFFF82FCFFFFEA
:100F70001C2101231B04984201D3000C10391B0AC9
:100F8000984201D3000A08391B09984201D300098D
:100F9000043902A2105C40187047C04604030202E4
:100FA00001010101000000000000000010B500294F
:100FB00003D1FFF7DDFF203002E00800FFF7D8FF84
:100FC00010BDC04680B582B000AF0200BB1D1A80C4
:100FD000084B1B6800225A62C046064B1B685A6ABF
:100FE000BB1D1B889A42F8D3C046C046BD4602B01E
:100FF00080BDC046A400002090B587B000AF172484
:101000003B1900221A703B00180014231A0000211B
:1010100004F036FC3B00802292001A603B00012263
:101020005A603B000022DA603B0000229A603B00DD
:10103000334A1900100001F039F880239B00304832
:101040000022190001F0CDF9142000F0A5FE802344
:101050009B002B480122190001F0C3F91E20FFF765
:10106000B1FF3B0000225A603B0001229A603B0026
:10107000234A1900100001F019F82820FFF7A2FFF9
:1010800080239B001E4A1900100001F08DF9031EF9
:101090000ED15020FFF796FF80239B00184A1900BD
:1010A000100001F081F9031E02D03B1901221A70D1
:1010B00000F068FE0200134B1A6000F063FE0200AD
:1010C000114B1A6004E000F05DFE02000E4B1A6046
:1010D00080239B000A4A1900100001F065F9031EE5
:1010E00006D0084B1B689A1C074B1B689A42EAD82B
:1010F0001723FB181B781800BD4607B090BDC046EB
:1011000000040050700100207401002080B582B0FE
:1011100000AFFB1D00221A7071E000F033FE0200E8
:101120003C4B1A6000F02EFE02003B4B1A6004E0BC
:1011300000F028FE0200384B1A6080239B00374ADB
:101140001900100001F030F9031E06D1314B1B6865
:101150009A1C314B1B689A42EAD82820FFF732FFCD
:1011600080239B002D4A1900100001F01DF9031E79
:1011700011D1FB1D1B780722D31A01229A401300BC
:101180005BB2DB435BB2BA1D127852B213405AB263
:10119000BB1D1A700EE0FB1D1B780722D31A01221B
:1011A0009A4013005AB2BB1D1B785BB213435AB26C
:1011B000BB1D1A7000F0E6FD0200164B1A6000F02D
:1011C000E1FD0200144B1A6004E000F0DBFD0200B8
:1011D000114B1A6080239B00104A1900100001F087
:1011E000E3F8031E06D00B4B1B689A1C0A4B1B68C6
:1011F0009A42EAD8FB1D1A78FB1D01321A70FB1DBA
:101200001B78072B89D9BB1D1B781800BD4602B07F
:1012100080BDC04670010020740100200004005011
:1012200090B583B000AF00237B6016E06A4A7B680C
:10123000D31800221A70694A7B68D31800221A70EA
:10124000674A7B68D31800221A70664A7B68D318F5
:1012500000221A707B6801337B607B68072BE5DD19
:101260005D4B0821180000F083FB5C4B082118003F
:1012700000F07EFB5A4B0821180000F079FB594B17
:101280000821180000F074FB534B0821180000F0EF
:1012900059FB524B0821180000F054FB504B082119
:1012A000180000F04FFB4F4B0821180000F04AFBDC
:1012B00000F002FD00F0A4F800F078FA00F01AF94E
:1012C00000F0B8F900F042FA00F0ECF9464B1800D3
:1012D00002F044FDFFF790FE031E76D000233B6032
:1012E0001EE0424B19783C4A3B68D3180A1C1A701E
:1012F0003E4B5978394A3B68D3180A1C1A703B4B4D
:101300009978374A3B68D3180A1C1A70374BD9783A
:10131000344A3B68D3180A1C1A703B6801333B609F
:101320003B68072BDDDDFFF7F1FE03001A00304BB1
:101330001A70294B1B781A00284B1B78D318284A9F
:1013400012789B18274A12789B18294A12789342E0
:101350003BD1234B1B781800FFF71AFA041C214BD2
:101360001B781800FFF74CFD0022224BFFF752FAC2
:1013700002000B0010001900FFF772FD031C191C7E
:10138000201CFFF767F8031C1A1C1B4B1A60124B3A
:101390001B781800FFF7FCF9041C104B1B78180091
:1013A000FFF72EFD0022134BFFF734FA02000B006B
:1013B00010001900FFF754FD031C191C201CFFF737
:1013C00049F8031C1A1C0D4B1A60FA23DB001800A5
:1013D00000F0E2FC7EE7C046840100208C01002082
:1013E000940100209C010020A40000208001002026
:1013F0006C01002000002440780100207C010020C6
:1014000090B59DB000AF38243B19180038231A005E
:10141000002104F035FA2423FB18180014231A00C5
:10142000002104F02DFA3B00180024231A000021AB
:1014300004F026FA2D4B1B682D4A1A402B4B8021B5
:1014400009010A431A6021007B180A221A607B18DE
:101450000122DA607B1810221A617B1801225A617E
:101460007B1802229A627B180022DA627B188022A3
:1014700012031A637B18802212045A637B18180027
:1014800000F0F2FF031E01D000F088FA24217B183F
:101490000F221A607B1803225A607B1800229A6080
:1014A0007B180022DA607B1800221A617B18012168
:1014B000180001F0ADFB031E01D000F06FFA3B00F5
:1014C00022221A603B000022DA603B008022920256
:1014D0005A603B00180001F0BFFD031E01D000F070
:1014E0005DFAC046BD461DB090BDC04600700040CC
:1014F000FFE7FFFF80B590B000AF2C23FB1818006A
:1015000014231A00002104F0BBF92823FB18002241
:101510001A603B00180028231A00002104F0B0F9DB
:10152000414B424A1A60404B00225A603E4B1F22F8
:101530009A603D4B3E4ADA603B4B00221A613A4BBF
:1015400000225A61384B00229A61374B0022DA613F
:10155000354B180001F0DCFE031E01D000F01EFA2E
:101560002C217B1800221A707B1800225A707B18DD
:1015700000229A707B180022DA607B1800221A6120
:101580007918294B0022180001F05EFF031E01D0DC
:1015900000F004FA28217B1801221A707B1801221E
:1015A0005A707B1801229A707B180022DA70791821
:1015B0001D4B0022180001F0F1FF031E01D000F0C6
:1015C000EDF93B0000221A703B0000225A703B00EC
:1015D00000229A703B0000225A603B000022DA6031
:1015E0003B0000221A613B0000225A613B00F022BE
:1015F00012059A613B000022DA613B0020220121A2
:1016000099543B00802252005A623900064B002256
:10161000180002F057F8031E01D000F0BFF9C046D1
:10162000BD4610B080BDC046280000200028004004
:10163000FF03000080B500AF184B194A1A60174B22
:10164000822252005A60154B00229A60134B0022EE
:10165000DA60124B00221A61104B00225A610F4BC4
:10166000802292009A610D4B2022DA610B4B0022FE
:101670001A620A4B00225A62084B00229A62074BF8
:101680000722DA62054B180002F094FA031E01D01B
:1016900000F084F9C046BD4680BDC0464C00002025
:1016A0000030014080B586B000AF0823FB18180059
:1016B00010231A00002104F0E3F83B00180008236F
:1016C0001A00002104F0DCF81E4B8022D2051A60BB
:1016D0001C4B1F225A601B4B00229A60194B1A4A5E
:1016E000DA60184B00221A61164B00225A61154B22
:1016F000180002F0F3FA031E01D000F04FF90821A0
:101700007B18802252011A607A180E4B11001800C3
:1017100002F056FC031E01D000F040F93B0000220D
:101720001A603B0000225A603A00064B1100180074
:1017300002F03AFE031E01D000F030F9C046BD466B
:1017400006B080BDA4000020FFFF000080B500AF00
:10175000144B154A1A60134BE12252025A60114B86
:1017600000229A600F4B0022DA600E4B00221A61B1
:101770000C4B0C225A610B4B00229A61094B002240
:10178000DA61084B00221A62064B00225A62054BAE
:10179000180002F067FE031E01D000F0FFF8C046FB
:1017A000BD4680BDE40000200044004090B58BB0F1
:1017B00000AF14243B19180014231A00002104F070
:1017C0005FF85C4BDA6A5B4B01210A43DA62594BE2
:1017D000DB6A012213403B613B69564BDA6A554B89
:1017E00002210A43DA62534BDB6A02221340FB6098
:1017F000FB68504BDA6A4F4B04210A43DA624D4BC7
:10180000DB6A04221340BB60BB684A4BDA6A494B6F
:1018100080210A43DA62474BDB6A802213407B60F7
:101820007B684549A023DB050022180000F0D9FDA4
:1018300080239B0041480022190000F0D2FD404B5C
:1018400000220721180000F0CCFD3B193A4A1A602B
:101850003B1901225A603B1900229A603B1902226F
:10186000DA603A19A023DB051100180000F01EFC15
:1018700021007B18802292001A600C003B19012283
:101880005A603B1900229A603B190022DA603B192A
:101890002A4A1900100000F009FC21007B181322CD
:1018A0001A607B18882252035A607B1800229A60C3
:1018B0000C007B18214A1900100000F0F7FB2100F2
:1018C0007B18802292011A607B18882252035A608A
:1018D0007B1800229A600C007B18194A190010002E
:1018E00000F0E4FB21007B1807221A607B1801221C
:1018F0005A607B1800229A607B180222DA607B18FB
:101900000F4A1900100000F0D1FB00220021052031
:1019100000F012FB052000F024FB0022002107202C
:1019200000F00AFB072000F01CFBC046BD460BB0D0
:1019300090BDC0460010024002900000000400501C
:101940000008005090B583B000AF78600A00BB1C5F
:101950001A8001235C42BB1C1A8879680348230063
:1019600002F0D4FDC046BD4603B090BDE4000020A7
:1019700090B583B000AF78600A00BB1C1A800123C9
:101980005C42BB1C1A8879680348230002F05EFEA3
:10199000C046BD4603B090BDE400002080B500AF56
:1019A00072B6C046FEE7000080B500AF074B5A6B29
:1019B000064B01210A435A63044B9A6B034B802167
:1019C00049050A439A63C046BD4680BD00100240E7
:1019D00080B582B000AF78607B681B680A4A93428A
:1019E0000ED10A4B1A6D094B8021C9020A431A65B0
:1019F00000220021022000F09FFA022000F0B1FA3C
:101A0000C046BD4602B080BD002800400010024024
:101A100090B58BB000AF786014243B1918001423E4
:101A20001A00002103F02CFF7B681B68284A9342B0
:101A30004AD1284B5A6B274B802149010A435A63EC
:101A4000244BDA6A234B02210A43DA62214BDB6A18
:101A5000022213403B613B691E4BDA6A1D4B012198
:101A60000A43DA621B4BDB6A01221340FB60FB680E
:101A70003B1908221A603B1902225A603B190022C6
:101A80009A603B190322DA603B1900221A613B1964
:101A9000114A1900100000F009FB21007B18C02238
:101AA0001A607B1802225A607B1800229A607B1809
:101AB0000322DA607B1800221A617A18A023DB0562
:101AC0001100180000F0F2FAC046BD460BB090BD00
:101AD00000300140001002400004005080B582B088
:101AE00000AF78607B681A688023DB059A420DD1CD
:101AF000084B9A6B074B01210A439A63002200218D
:101B00000F2000F019FA0F2000F02BFAC046BD4656
:101B100002B080BD0010024090B589B000AF78607F
:101B20000C243B19180014231A00002103F0A8FE0E
:101B30007B681B681C4A934231D11C4B9A6B1B4B30
:101B4000802189020A439A63184BDA6A174B0121F4
:101B50000A43DA62154BDB6A01221340BB60BB68A3
:101B600021007B180C221A607B1802225A607B1815
:101B700000229A607B180322DA607B1804221A6123
:101B80007A18A023DB051100180000F08FFA00225C
:101B900000211C2000F0D0F91C2000F0E2F9C04622
:101BA000BD4609B090BDC046004400400010024050
:101BB00080B500AFFEE780B500AFFEE780B500AFAF
:101BC000C046BD4680BD80B500AFC046BD4680BDA5
:101BD00080B500AF00F0C4F8C046BD4680BD00002F
:101BE00080B500AF034B180001F0CEFEC046BD46E5
:101BF00080BDC0462800002080B500AF012000F065
:101C00000DFC022000F00AFCC046BD4680BD80B538
:101C100000AF102000F002FC80239B01180000F0B0
:101C2000FDFBC046BD4680BD80B500AF034B18002C
:101C300002F0DEF8C046BD4680BDC046A4000020CC
:101C400080B500AF034B180002F0E6FDC046BD466C
:101C500080BDC046E400002080B500AFC046BD4650
:101C600080BD00000D488546FFF7F6FF0C480D4982
:101C70000D4A002302E0D458C4500433C4188C42E7
:101C8000F9D30A4A0A4C002301E013600432A2424D
:101C9000FBD303F0D1FDFFF7C3FAFEE700500020AD
:101CA000000000200C000020645900080C000020F7
:101CB000A8010020FEE7000080B582B000AFFB1D48
:101CC00000221A700B4B1A680A4B40210A431A6013
:101CD000002000F011F8031E03D0FB1D01221A7032
:101CE00001E0FFF761FEFB1D1B781800BD4602B046
:101CF00080BDC0460020024090B583B000AF786040
:101D0000144B1C68144B1B781900FA239800FEF73B
:101D1000FBF9030019002000FEF7F6F90300180094
:101D200000F02FF9031E01D001230FE07B68032B85
:101D30000BD8796801235B420022180000F0FCF800
:101D4000064B7A681A60002300E001231800BD46A4
:101D500003B090BD00000020080000200400002017
:101D600080B500AF054B1B781A00054B1B68D218D5
:101D7000034B1A60C046BD4680BDC0460800002027
:101D8000A401002080B500AF024B1B681800BD46BF
:101D900080BDC046A401002080B584B000AF78604B
:101DA000FFF7F0FF0300BB607B68FB60FB6801335B
:101DB00005D00A4B1B781A00FB689B18FB60C046D5
:101DC000FFF7E0FF0200BB68D31AFA689A42F7D81F
:101DD000C046C046BD4604B080BDC04608000020D5
:101DE00080B582B000AF0200FB1D1A70FB1D1B788E
:101DF0007F2B09D8FB1D1B781A001F231A40044BA8
:101E0000012191400A001A60C046BD4602B080BD63
:101E100000E100E090B583B000AF02003960FB1D27
:101E20001A70FB1D1B787F2B28D82F4AFB1D1B78AF
:101E30005BB29B08C0339B009B58FA1D12781100BF
:101E400003220A40D200FF2191400A00D2431A40E7
:101E500011003B689B01FF221A40FB1D1B781800F4
:101E600003230340DB009A401F48FB1D1B785BB235
:101E70009B080A43C0339B001A5031E01B4AFB1DEC
:101E80001B7819000F230B40083B9B0806339B006F
:101E9000D31804331B68FA1D1278110003220A407C
:101EA000D200FF2191400A00D2431A4011003B6842
:101EB0009B01FF221A40FB1D1B78180003230340DF
:101EC000DB009A400948FB1D1B781C000F232340B0
:101ED000083B9B080A4306339B00C31804331A606F
:101EE000C046BD4603B090BD00E100E000ED00E05B
:101EF00080B582B000AF78607B685A1E80235B0497
:101F00009A4201D3012310E00A4B7A68013A5A60E1
:101F100001235B4203211800FFF77CFF054B0022E1
:101F20009A60044B07221A6000231800BD4602B0D5
:101F300080BDC04610E000E080B584B000AFB9605D
:101F40007A600F217B18021C1A70BA687B181B7804
:101F50005BB211001800FFF75DFFC046BD4604B03C
:101F600080BD80B582B000AF0200FB1D1A70FB1D62
:101F70001B785BB21800FFF733FFC046BD4602B0C6
:101F800080BD80B582B000AF78607B681800FFF735
:101F9000AFFF03001800BD4602B080BD80B584B01D
:101FA00000AF78600F23FB1800221A707B6825228F
:101FB0009B5CDBB2022B08D07B680422DA637B686F
:101FC000242200219954012324E07B681B681A68AD
:101FD0007B681B680E218A431A607B681B681A683D
:101FE0007B681B6801218A431A607B685B6C1C223A
:101FF0001A407B681B6C012191400A005A607B6883
:102000002522012199547B682422002199540F2311
:10201000FB181B781800BD4604B080BD80B584B0A5
:1020200000AF78600F217B1800221A707B68252290
:102030009B5CDBB2022B06D07B680422DA637B1840
:1020400001221A702AE07B681B681A687B681B688B
:102050000E218A431A607B681B681A687B681B68BC
:1020600001218A431A607B685B6C1C221A407B68E2
:102070001B6C012191400A005A607B6825220121D6
:1020800099547B682422002199547B689B6B002B18
:1020900004D07B689B6B7A68100098470F23FB186D
:1020A0001B781800BD4604B080BD000080B586B026
:1020B00000AF7860396000237B610023FB60002360
:1020C0003B6155E13B681B6801217A6991400A0038
:1020D0001340FB60FB68002B00D146E13B685B6866
:1020E00003221340012B05D03B685B680322134099
:1020F000022B30D17B689B683B617B695B000322CC
:102100009A401300DA433B6913403B613B68DA684D
:102110007B695B009A4013003A6913433B617B681B
:102120003A699A607B685B683B6101227B699A40EF
:102130001300DA433B6913403B613B685B681B0952
:1021400001221A407B699A4013003A6913433B61AC
:102150007B683A695A603B685B6803221340032B33
:1021600017D07B68DB683B617B695B0003229A4088
:102170001300DA433B6913403B613B689A687B6913
:102180005B009A4013003A6913433B617B683A69EC
:10219000DA603B685B6803221340022B23D17B6922
:1021A000DA087B6808329200D3583B617B690722CA
:1021B00013409B000F229A401300DA433B691340FF
:1021C0003B613B681A697B6907210B409B009A4081
:1021D00013003A6913433B617B69DA087B68083274
:1021E00092003969D1507B681B683B617B695B0059
:1021F00003229A401300DA433B6913403B613B687A
:102200005B6803221A407B695B009A4013003A69BD
:1022100013433B617B683A691A603B685A68C02384
:102220009B02134000D1A0E0574B5A6B564B012143
:102230000A435A63554A7B699B0802339B009B58AB
:102240003B617B69032213409B000F229A401300DD
:10225000DA433B6913403B617A68A023DB059A426D
:102260001FD07B684A4A934219D07B68494A9342FF
:1022700013D07B68484A93420DD07B68474A93420B
:1022800007D07B68464A934201D105230AE0062322
:1022900008E0042306E0032304E0022302E0012314
:1022A00000E000237A6903210A40920093403A69D2
:1022B00013433B6135497B699B0802339B003A69B4
:1022C0005A50384B9B683B61FB68DA433B691340CB
:1022D0003B613B685A6880235B03134003D03A6933
:1022E000FB6813433B612F4B3A699A602D4BDB68C7
:1022F0003B61FB68DA433B6913403B613B685A68CA
:1023000080239B03134003D03A69FB6813433B616E
:10231000244B3A69DA60234B5B683B61FB68DA4324
:102320003B6913403B613B685A6880239B02134022
:1023300003D03A69FB6813433B611A4B3A695A6010
:10234000184B1B683B61FB68DA433B6913403B61F8
:102350003B685A6880235B02134003D03A69FB68EC
:1023600013433B610F4B3A691A607B6901337B6110
:102370003B681A687B69DA40131E00D0A2E6C046AB
:10238000C046BD4606B080BD0010024000000140BE
:102390000004005000080050000C005000100050D5
:1023A000001C00500004014080B584B000AF78608C
:1023B0000A00BB1C1A807B681B69BA1C1288134078
:1023C00004D00F23FB1801221A7003E00F23FB181F
:1023D00000221A700F23FB181B781800BD4604B0AA
:1023E00080BD80B582B000AF786008001100BB1CD2
:1023F000021C1A807B1C0A1C1A707B1C1B78002B89
:1024000004D0BB1C1A887B689A6103E0BB1C1A8845
:102410007B689A62C046BD4602B080BD80B582B07E
:1024200000AF0200BB1D1A80094B5B69BA1D128800
:10243000134008D0064BBA1D12885A61BB1D1B8879
:10244000180000F007F8C046BD4602B080BDC04687
:102450000004014080B582B000AF0200BB1D1A80AD
:10246000C046BD4602B080BDB0B58AB000AF78604E
:102470007B68002B02D1012300F0BFFBC94BDB6856
:102480000C221340FB61C74BDA6880235B021340C8
:10249000BB617B681B680122134000D17EE0FB69B1
:1024A000082B07D0FB690C2B12D1BA6980235B0281
:1024B0009A420DD1BB4B1A6880239B02134000D176
:1024C0006BE07B685B68002B67D1012300F095FB14
:1024D0007B685A6880235B029A4207D1B14B1A6825
:1024E000B04B802149020A431A6027E07B685A6892
:1024F000A023DB029A420ED1AA4B1A68A94B802175
:10250000C9020A431A60A74B1A68A64B80214902E8
:102510000A431A6012E0A34B1A68A24BA2490A4070
:102520001A60A04B1A6880235B021340FB60FB68B3
:102530009C4B1A689B4B9D490A401A607B685B68FC
:10254000002B15D0FFF71EFC03007B6109E0FFF7AD
:1025500019FC02007B69D31A642B02D9032300F013
:102560004CFB904B1A6880239B021340EFD015E080
:10257000FFF708FC03007B6108E0FFF703FC0200A3
:102580007B69D31A642B01D9032336E3854B1A6880
:1025900080239B021340F0D100E0C0467B681B689B
:1025A0000222134000D199E07B68DB687B627B6A82
:1025B0002022134009D07B4B1A687A4B20210A4312
:1025C0001A607B6A202293437B62FB69042B05D04F
:1025D000FB690C2B3ED1BB69002B3BD1714B1B68B7
:1025E0000422134004D07B6A002B01D1012304E3B1
:1025F0006C4B5B686E4A134019007B681B691A02BA
:10260000684B0A435A60674B1B68092293431900C1
:10261000644B7A6A0A431A6000F042FC0100614B85
:10262000DB681B090F221340624AD35C0A00DA40C0
:10263000614B1A60614B1B6813257C191800FFF76A
:102640005BFB030023707B191B78002B46D07B19A2
:102650001B78D2E27B6A002B27D0524B1B680922E1
:10266000934319004F4B7A6A0A431A60FFF78AFBBB
:1026700003007B6108E0FFF785FB02007B69D31A4A
:10268000022B01D90323B8E2464B1B6804221340F6
:10269000F1D0444B5B68464A134019007B681B69C4
:1026A0001A02404B0A435A6018E03E4B1A683D4BF1
:1026B00001218A431A60FFF765FB03007B6108E094
:1026C000FFF760FB02007B69D31A022B01D90323B9
:1026D00093E2344B1B6804221340F1D17B681B68E2
:1026E0001022134000D1A2E0FB69002B40D12D4BFA
:1026F0001A6880239B00134005D07B68DB69002BA0
:1027000001D1012379E2274B5B682D4A1340190060
:102710007B685A6A234B0A435A60224B5B681B0250
:10272000190A7B681B6A1A061E4B0A435A607B68AB
:102730005B6A5B0B0133802212029A40194BDB6803
:102740001B090F210B401B49CB5CDA401A4B1A6066
:102750001A4B1B6813257C191800FFF7CDFA0300EC
:1027600023707B191B78002B61D07B191B7844E206
:102770007B68DB69002B40D00A4B1A68094B80212B
:1027800049000A431A60FFF7FDFA03007B6119E074
:10279000FFF7F8FA02007B69D31A022B12D9032340
:1027A0002BE2C04600100240FFFFFEFFFFFFFBFFD1
:1027B000FFE0FFFFE85800080000002004000020B0
:1027C000FF1FFFFFCA4B1A6880239B001340DFD016
:1027D000C74B5B68C74A134019007B685A6AC44BF1
:1027E0000A435A60C24B5B681B02190A7B681B6A6A
:1027F0001A06BF4B0A435A6019E0BD4B1A68BC4B1E
:10280000BD490A401A60FFF7BDFA03007B6108E08A
:10281000FFF7B8FA02007B69D31A022B01D9032310
:10282000EBE1B34B1A6880239B001340F0D17B6827
:102830001B680822134036D07B685B69002B19D0D7
:10284000AB4B1A6DAA4B01210A431A65FFF79AFA9E
:1028500003007B6108E0FFF795FA02007B69D31A59
:10286000022B01D90323C8E1A14B1B6D02221340A7
:10287000F1D018E09E4B1A6D9D4B01218A431A65D9
:10288000FFF780FA03007B6108E0FFF77BFA0200A4
:102890007B69D31A022B01D90323AEE1944B1B6D44
:1028A00002221340F1D17B681B680422134000D13F
:1028B000AEE023203B1800221A708D4B9A6B8023C8
:1028C0005B05134009D18A4B9A6B894B80214905DE
:1028D0000A439A633B1801221A70884B1A688023B6
:1028E0005B0013401AD1854B1A68844B8021490044
:1028F0000A431A60FFF746FA03007B6108E0FFF71E
:1029000041FA02007B69D31A642B01D9032374E1D5
:102910007A4B1A6880235B001340F0D07B689A687A
:1029200080235B009A4207D1714B1A6D704B802156
:1029300049000A431A6531E07B689B68002B0CD183
:102940006B4B1A6D6A4B6C490A401A65684B1A6DDD
:10295000674B6B490A401A6520E07B689A68A023A0
:10296000DB009A420ED1624B1A6D614B8021C90087
:102970000A431A655E4B1A6D5D4B802149000A437C
:102980001A650BE05A4B1A6D594B5B490A401A65A0
:10299000574B1A6D564B5A490A401A657B689B681B
:1029A000002B15D0FFF7EEF903007B6109E0FFF77C
:1029B000E9F902007B69D31A524A934201D90323F1
:1029C0001BE14B4B1A6D80239B001340EFD014E0AA
:1029D000FFF7D8F903007B6109E0FFF7D3F90200A4
:1029E0007B69D31A474A934201D9032305E1404B3F
:1029F0001A6D80239B001340EFD12323FB181B7813
:102A0000012B05D13A4B9A6B394B3F490A409A63E7
:102A10007B681B682022134049D07B689B69002B90
:102A200026D0334B9A68324B01210A439A60304BCF
:102A30005A6B2F4B01210A435A63344B1A6A334BAA
:102A4000802189010A431A62FFF79CF903007B6128
:102A500008E0FFF797F902007B69D31A022B01D92E
:102A60000323CAE0224B9B6802221340F1D01EE0F0
:102A70001F4B9A681E4B01218A439A60234B1A6AA6
:102A8000224B23490A401A62FFF77CF903007B615D
:102A900008E0FFF777F902007B69D31A022B01D90E
:102AA0000323AAE0124B9B6802221340F1D17B68FA
:102AB0009B6A002B00D19FE0FB690C2B00D178E0D2
:102AC0007B689B6A022B59D1094B1A68084B114944
:102AD0000A401A60FFF756F903007B611CE0FFF71C
:102AE00051F902007B69D31A022B15D9032384E024
:102AF00000100240FF1FFFFFFFFEFFFF00700040BD
:102B0000FFFBFFFF88130000FFFFFFEF0000014005
:102B1000FFDFFFFFFFFFFFFE3A4B1A6880239B0495
:102B20001340DCD1374BDB68374A134019007B6810
:102B3000DA6A7B681B6B1A437B685B6B1A43314B09
:102B40000A43DA602F4B1A682E4B802149040A434E
:102B50001A60FFF717F903007B6108E0FFF712F92D
:102B600002007B69D31A022B01D9032345E0254BD0
:102B70001A6880239B041340F0D03DE0214B1A6873
:102B8000204B22490A401A60FFF7FCF803007B61E2
:102B900008E0FFF7F7F802007B69D31A022B01D98E
:102BA00003232AE0174B1A6880239B041340F0D1BB
:102BB00022E07B689B6A012B01D101231DE0114BB0
:102BC000DB68BB61BA6980235B021A407B68DB6A01
:102BD0009A420FD1BA69F0239B031A407B681B6BA2
:102BE0009A4207D1BA69C0231B041A407B685B6B09
:102BF0009A4201D0012300E000231800BD460AB02C
:102C0000B0BDC04600100240FFFF02FFFFFFFFFE05
:102C1000B0B584B000AF786039607B68002B01D11B
:102C2000012328E1964B1B68012213403A689A421F
:102C30001ED9934B1B68012293431900904B3A68AD
:102C40000A431A60FFF79EF80300FB6009E0FFF7F4
:102C500099F80200FB68D31A8A4A934201D90323E8
:102C600009E1874B1B68012213403A689A42EED172
:102C70007B681B680222134009D0834BDB68F0227B
:102C8000934319007B689A687F4B0A43DA607B683C
:102C90001B680122134000D189E07B685B68022B2E
:102CA00007D1794B1A6880239B02134020D101235E
:102CB000E1E07B685B68032B07D1734B1A688023C4
:102CC0009B04134014D10123D5E07B685B68012B82
:102CD00006D16D4B1B680422134009D10123CAE0C1
:102CE000694B1A6880239B00134001D10123C2E085
:102CF000654BDB680322934319007B685A68624B7B
:102D00000A43DA60FFF73EF80300FB607B685B680C
:102D1000022B11D109E0FFF735F80200FB68D31A46
:102D2000584A934201D90323A5E0574BDB680C2294
:102D30001340082BEFD13AE07B685B68032B11D17D
:102D400009E0FFF71FF80200FB68D31A4D4A9342CF
:102D500001D903238FE04C4BDB680C2213400C2B72
:102D6000EFD124E07B685B68012B1BD109E0FFF702
:102D700009F80200FB68D31A424A934201D903239F
:102D800079E0414BDB680C221340042BEFD10EE0BD
:102D9000FEF7F8FF0200FB68D31A3A4A934201D9C2
:102DA000032368E0384BDB680C221340F0D1344B2E
:102DB0001B68012213403A689A421ED2304B1B68AE
:102DC0000122934319002E4B3A680A431A60FEF71A
:102DD000D9FF0300FB6009E0FEF7D4FF0200FB68A7
:102DE000D31A284A934201D9032344E0244B1B6899
:102DF000012213403A689A42EED17B681B68042294
:102E0000134009D0204BDB68204A134019007B682F
:102E1000DA681D4B0A43DA607B681B68082213409E
:102E20000AD0194BDB681A4A134019007B681B69EA
:102E3000DA00154B0A43DA6000F032F80100124B59
:102E4000DB681B090F221340124AD35C0A00DA40E8
:102E5000114B1A60114B1B680B257C191800FEF7EB
:102E60004BFF030023707B191B78002B02D07B19CA
:102E70001B7800E000231800BD4604B0B0BDC0467A
:102E8000002002408813000000100240FFF8FFFFFE
:102E9000FFC7FFFFE85800080000002004000020E2
:102EA000B0B58EB000AF4C4BDB68FB62FA6A0C2306
:102EB00013400C2B14D000D97BE0042B02D0082B3C
:102EC0000BD076E0444B1B681022134002D0434BDA
:102ED0003B637CE0424B3B6379E0424B3B6376E0F3
:102EE000FB6A9A0C0F231A403F4B9B5CBB62FB6A48
:102EF0009A0D0323134001337B62374BDA6880233A
:102F00005B0213401AD0BB6ABB610023FB61354AE8
:102F10000023B869F969FDF7A3F902000B0010005E
:102F200019007B6A3B6100237B613A697B69FDF78D
:102F300077F902000B0013007B6337E0264B1B6818
:102F4000102213401AD0BB6ABB600023FB60234AE7
:102F50000023B868F968FDF783F902000B00100040
:102F600019007B6A3B6000237B603A687B68FDF751
:102F700057F902000B0013007B6317E0BB6A1800CF
:102F800000231900164A0023FDF76AF902000B001E
:102F9000100019007B6A1C0000231D0022002B007A
:102FA000FDF73EF902000B0013007B637B6B3B6374
:102FB0000DE0094B5B685B0B072213403B623B6AE9
:102FC0000133802212029A4013003B63C0463B6BE0
:102FD0001800BD460EB0B0BD0010024000093D0013
:102FE0000024F40000127A000059000880B500AFF8
:102FF000024B1B681800BD4680BDC0460000002083
:1030000080B500AFFFF7F2FF0100064BDB681B0A3B
:1030100007221340044AD35CD9400B001800BD4678
:1030200080BDC04600100240F858000880B500AFCF
:10303000FFF7DCFF0100064BDB68DB0A07221340C9
:10304000044AD35CD9400B001800BD4680BDC04681
:1030500000100240F858000880B586B000AF7860D4
:1030600017203B1800221A707B681B68202213402F
:1030700000D1C7E09B4B9A6B80235B05134009D1BD
:10308000984B9A6B974B802149050A439A633B18EA
:1030900001221A70944B1A6880235B0013401AD1E6
:1030A000914B1A68904B802149000A431A60FEF741
:1030B00069FE03003B6108E0FEF764FE02003B6925
:1030C000D31A642B01D9032307E1874B1A688023A5
:1030D0005B001340F0D0834B1A68C0239B0313405E
:1030E000FB607B685A68C0239B031340FA689A42CE
:1030F00013D07B685A68C0239B021A40C0239B02EE
:103100009A420AD1774B1A6880239B021A40802387
:103110009B029A4201D10123DFE0724B1A6DC0235A
:103120009B021340FB60FB68002B3BD07B685A6816
:10313000C0239B021340FA689A4233D07B681B6815
:10314000202213402ED0674B1B6D684A1340FB6052
:10315000644B1A6D634B802109030A431A65614B66
:103160001A6D604B62490A401A655E4BFA681A652F
:10317000FA6880235B00134014D0FEF703FE0300BF
:103180003B6109E0FEF7FEFD02003B69D31A594A94
:10319000934201D90323A0E0524B1A6D80239B0078
:1031A0001340EFD07B681B68202213401FD07B6840
:1031B0005A68C0239B021A40C0239B029A420CD13A
:1031C000484B1B684C4A134019007B685A68C0235F
:1031D0009B031A40434B0A431A60424B196D7B68AC
:1031E0005A68C0239B021A403E4B0A431A651723B4
:1031F000FB181B78012B05D13A4B9A6B394B3F4991
:103200000A409A637B681B680122134009D0354B42
:10321000DB6C0322934319007B689A68314B0A43A5
:10322000DA647B681B680222134009D02D4BDB6CEB
:103230000C22934319007B68DA682A4B0A43DA644C
:103240007B681B680422134009D0264BDB6C2C4A98
:10325000134019007B681A69224B0A43DA647B68C1
:103260001B680822134009D01E4BDB6C254A134013
:1032700019007B685A691B4B0A43DA647B681A6839
:1032800080235B00134009D0164BDB6C174A1340B8
:1032900019007B689A69134B0A43DA647B681B68E0
:1032A0004022134009D00F4BDB6C174A1340190022
:1032B0007B681A6A0B4B0A43DA647B681B688022BE
:1032C000134009D0074BDB6C104A134019007B6890
:1032D000DA69044B0A43DA6400231800BD4606B0DD
:1032E00080BDC0460010024000700040FFFFFCFFA0
:1032F000FFFFF7FF88130000FFFFCFFFFFFFFFEF87
:10330000FFF3FFFFFFCFFFFFFFFFFFFBFFFFF3FF19
:10331000B0B584B000AF78600F23FB1801221A709B
:103320007B68002B01D1012388E07B6821229B5C14
:10333000DBB2002B07D17B682022002199547B68E7
:103340001800FEF745FB7B682122022199547B6817
:103350001B68DB6810221340102B5FD07B681B6852
:10336000CA225A627B681B6853225A620F257C1955
:103370007B68180000F086FB0300237028003B18D0
:103380001B78002B2CD17B681B689A687B681B68B4
:103390002C490A409A607B681B6899687B685A6868
:1033A0007B681B691A437B689B691A437B681B68AF
:1033B0000A439A607B681B687A68D2681A617B68E6
:1033C0001B6819697B689B681A047B681B680A4341
:1033D0001A613C187B68180000F098FB030023700A
:1033E0000F23FB181B78002B13D17B681B68DA6C4A
:1033F0007B681B6803218A43DA647B681B68D96C8D
:103400007B68DA697B685B691A437B681B680A43DF
:10341000DA647B681B68FF225A6203E00F23FB1803
:1034200000221A700F23FB181B78002B03D17B6836
:103430002122012199540F23FB181B781800BD4647
:1034400004B0B0BDBFFF8FFFB0B586B000AFF8606D
:10345000B9607A6000237B61FB6820229B5C012BB2
:1034600001D1022392E0FB68202201219954FB68DC
:103470002122022199547B68002B25D1FB681B680F
:103480009B684022134002D1BB680022DA70BB68FF
:103490001B78180000F064FB03001C04BB685B7819
:1034A000180000F05DFB03001B021C43BB689B7807
:1034B000180000F055FB030022001A43BB68DB78BC
:1034C0009B0513437B6117E0FB681B689B684022E8
:1034D000134002D1BB680022DA70BB681B781A0463
:1034E000BB685B781B021343BA6892781A43BB68C7
:1034F000DB789B0513437B61FB681B68CA225A6219
:10350000FB681B6853225A6213257C19FB6818005C
:1035100000F0B8FA0300237028003B181B78002B3A
:1035200020D1FB681B687A691A490A401A60FB6857
:103530001B689A68FB681B6817490A409A60FB6819
:103540001B689968BB68DA68BB681B691A43FB682B
:103550001B680A439A603C18FB68180000F0D6FA12
:10356000030023701323FB181B78002B03D1FB6887
:10357000212201219954FB681B68FF225A62FB68D3
:103580002022002199541323FB181B781800BD46F4
:1035900006B0B0BD7F7F7F00FFFFFBFFB0B586B0F8
:1035A00000AFF860B9607A6000237B61FB6820227D
:1035B0009B5C012B01D102237EE0FB6820220121CC
:1035C0009954FB682122022199547B68002B0ED16B
:1035D000BB685B781A001023134008D0BB685B7887
:1035E00010229343DBB20A33DAB2BB685A707B68AD
:1035F000002B1CD1BB68DB78180000F0B1FA030087
:103600001C04BB685B78180000F0AAFA03001B02D8
:103610001C43BB689B78180000F0A2FA030022004C
:103620001A43BB681B785B0313437B610EE0BB68E6
:10363000DB781A04BB685B781B021343BA68927884
:103640001A43BB681B785B0313437B61FB681B68F1
:10365000CA225A62FB681B6853225A6213257C19DE
:10366000FB68180000F00EFA0300237028003B18D6
:103670001B78002B0CD1FB681B687A6910490A4043
:103680005A603C18FB68180000F040FA03002370F1
:103690001323FB181B78002B03D1FB682122012187
:1036A0009954FB681B68FF225A62FB6820220021A4
:1036B00099541323FB181B781800BD4606B0B0BD03
:1036C0003FFFFF0090B589B000AFF860B9607A6045
:1036D000A74B1B68FA22D1011800FCF715FD030067
:1036E0001A0013005B019B1A9B009B18DB007B6197
:1036F0000023FB610023BB61FB6820229B5C012B44
:1037000001D1022330E1FB68202201219954FB689A
:103710002122022199547B68002B36D1FB681B685B
:103720009B684022134002D1BB680022DA70BB685C
:103730001B78180000F014FA03001C04BB685B78C7
:10374000180000F00DFA03001B021C43BB689B78B5
:10375000180000F005FA030022001A43BB68DB786A
:103760009B051A431400BB6820229B5C180000F0E4
:10377000F7F903001B0622001A43BB68DB691A43F2
:10378000BB685B691343FB6122E0FB681B689B68B5
:103790004022134002D1BB680022DA70BB681B785C
:1037A0001A04BB685B781B021343BA6892781A4309
:1037B000BB68DB789B051A43BB6820215B5C1B065A
:1037C0001A43BB68DB691A43BB685B691343FB613F
:1037D000BB685A68BB689B691343BB61FB681B6885
:1037E000CA225A62FB681B6853225A62BB685A6A33
:1037F00080235B009A4246D1FB681B689A68FB688D
:103800001B685C490A409A60FB681B68DB68FF2202
:103810001A40FB681B6858490A43DA607B69013B20
:103820007B617B69002B0DD1FB681B68FF225A620C
:10383000FB68212203219954FB682022002199541E
:10384000032391E0FB681B68DB6801221340E5D08D
:10385000FB681B68FA69DA61FB681B68BA695A641D
:10386000FB681B689A68FB681B68802149000A4353
:103870009A60FB681B689A68FB681B688021490195
:103880000A439A6055E0FB681B689A68FB681B68EE
:103890003A490A409A60FB681B68DB68FF221A40BD
:1038A000FB681B6836490A43DA60314B1B68FA2211
:1038B000D1011800FCF728FC03001A0013005B017B
:1038C0009B1A9B009B18DB007B617B69013B7B6142
:1038D0007B69002B0DD1FB681B68FF225A62FB68D5
:1038E000212203219954FB682022002199540323AB
:1038F0003AE0FB681B68DB6802221340E5D0FB68F6
:103900001B68FA691A62FB681B68BA699A64FB68EB
:103910001B689A68FB681B68802189000A439A60CB
:10392000FB681B689A68FB681B68802189010A4351
:103930009A60144B1A68134B802189020A431A605B
:10394000104B9A680F4B802189020A439A60FB68EA
:103950001B68FF225A62FB68212201219954FB68EF
:1039600020220021995400231800BD4609B090BDC3
:1039700000000020FFFEFFFF7FFEFFFFFFFDFFFFB7
:103980007FFDFFFF0004014080B582B000AF78608A
:10399000214B802292025A617B681B689A688023BF
:1039A0005B01134014D07B681B68DA6880235B00DE
:1039B00013400DD07B681B68DB68FF221A407B68D0
:1039C0001B6816490A43DA607B68180000F02AF881
:1039D0007B681B689A6880239B01134014D07B6826
:1039E0001B68DA6880239B0013400DD07B681B683E
:1039F000DB68FF221A407B681B6809490A43DA60CA
:103A00007B68180000F0CDF87B68212201219954D1
:103A1000C046BD4602B080BD000401407FFEFFFFEE
:103A20007FFDFFFF80B582B000AF7860C046BD4625
:103A300002B080BD80B584B000AF78600023FB6029
:103A40007B681B680E4ADA60FEF79CF90300FB6096
:103A50000AE0FEF797F90200FB68D21AFA239B00EE
:103A60009A4201D9032306E07B681B68DB682022A9
:103A70001340EED000231800BD4604B080BDC04600
:103A80005FFF010080B584B000AF78600023BB60A9
:103A90000F23FB1800221A707B681B68DB6840222A
:103AA00013402CD17B681B68DA687B681B68802117
:103AB0000A43DA60FEF766F90300BB6014E0FEF724
:103AC00061F90200BB68D21A0F203B183918097837
:103AD0001970FA239B009A4206D97B68212204219F
:103AE00099543B1801221A707B681B68DB684022DE
:103AF000134004D10F23FB181B78012BDFD10F23B8
:103B0000FB181B781800BD4604B080BD90B585B089
:103B100000AF78600F243B1900221A707B681B6885
:103B2000DA687B681B6880218A43DA607B681B68DF
:103B30009B68202213400CD17B681800FFF77AFFA6
:103B4000031E06D07B682122042199543B190122CF
:103B50001A700F23FB181B781800BD4605B090BDE6
:103B600080B584B000AF0200FB1D1A700023FB601B
:103B700007E0FB680133FB60FB1DFA1D12780A3A6F
:103B80001A70FB1D1B78092BF3D8FB68DBB21B01F5
:103B9000DAB2FB1D1B781343DBB21800BD4604B03C
:103BA00080BD80B582B000AF7860C046BD4602B02F
:103BB00080BD000080B582B000AF78607B68002BCC
:103BC00001D1012383E07B685B6A002B09D17B680C
:103BD0005A6882235B009A4209D07B680022DA612E
:103BE00005E07B6800221A617B6800225A617B68CD
:103BF00000229A627B6851229B5CDBB2002B07D1CA
:103C00007B685022002199547B681800FDF700FF63
:103C10007B685122022199547B681B681A687B6873
:103C20001B6840218A431A607B685A6882235B00C4
:103C30001A407B68996884231B020B401A437B68F7
:103C4000D96880231B010B401A437B681B69022142
:103C50000B401A437B685B6901210B401A437B6868
:103C6000996980239B000B401A437B68DB693821EC
:103C70000B401A437B681B6A80210B401A431100DA
:103C80007B689A6A80239B011A407B681B680A4301
:103C90001A607B689B691B0C0422134019007B6827
:103CA0005B6A10221A407B681B680A435A607B6873
:103CB0001B68DA697B681B6807490A40DA617B6820
:103CC00000225A657B685122012199540023180073
:103CD000BD4602B080BDC046FFF7FFFF80B582B091
:103CE00000AF78607B68002B01D1012332E07B6854
:103CF00039229B5CDBB2002B07D17B683822002184
:103D000099547B681800FDF7E9FE7B68392202218F
:103D100099547B681A687B6804331900100000F01E
:103D20004BFA7B683E22012199547B683A2201219B
:103D300099547B683B22012199547B683C220121E4
:103D400099547B683D22012199547B6839220121D5
:103D5000995400231800BD4602B080BD80B584B0E0
:103D600000AF78607B6839229B5CDBB2012B01D00D
:103D7000012333E07B683922022199547B681A6859
:103D80008023DB059A420ED07B681B68154A93425C
:103D900009D07B681B68144A934204D07B681B6877
:103DA000124A934211D17B681B689B68072213401B
:103DB000FB60FB68062B10D07B681B681A687B6869
:103DC0001B6801210A431A6007E07B681B681A68B8
:103DD0007B681B6801210A431A6000231800BD4656
:103DE00004B080BD00040040000801400014014000
:103DF00080B582B000AF78607B681B681B690222C7
:103E00001340022B24D17B681B68DB68022213401D
:103E1000022B1DD17B681B68032252421A617B680A
:103E200001221A767B681B689B690322134004D029
:103E30007B68180000F0A8F907E07B68180000F024
:103E40009BF97B68180000F0A7F97B6800221A76BE
:103E50007B681B681B6904221340042B25D17B68F7
:103E60001B68DB6804221340042B1ED17B681B688F
:103E7000052252421A617B6802221A767B681B680F
:103E80009A69C0239B00134004D07B68180000F09F
:103E90007BF907E07B68180000F06EF97B6818007A
:103EA00000F07AF97B6800221A767B681B681B6930
:103EB00008221340082B24D17B681B68DB6808228A
:103EC0001340082B1DD17B681B68092252421A61DE
:103ED0007B6804221A767B681B68DB690322134027
:103EE00004D07B68180000F04FF907E07B681800E9
:103EF00000F042F97B68180000F04EF97B68002260
:103F00001A767B681B681B6910221340102B25D181
:103F10007B681B68DB6810221340102B1ED17B6866
:103F20001B68112252421A617B6808221A767B684C
:103F30001B68DA69C0239B00134004D07B6818001B
:103F400000F022F907E07B68180000F015F97B68A3
:103F5000180000F021F97B6800221A767B681B6844
:103F60001B6901221340012B0FD17B681B68DB68A2
:103F700001221340012B08D17B681B6802225242A8
:103F80001A617B68180000F0EFF87B681B681B69FA
:103F900040221340402B0FD17B681B68DB68402216
:103FA0001340402B08D17B681B68412252421A61A2
:103FB0007B68180000F0F8F8C046BD4602B080BD2E
:103FC00080B584B000AF786039600F23FB18002201
:103FD0001A707B6838229B5C012B01D10223BCE064
:103FE0007B683822012199547B6839220221995437
:103FF0007B681B689B68BB60BB6877229343BB6090
:10400000BB68584A1340BB607B681B68BA689A60FB
:104010003B681B6880229201934240D0802292012B
:10402000934200D988E080225201934200D188E077
:1040300080225201934200D97EE0702B18D000D923
:104040007AE0602B4FD000D976E0502B3BD000D9DE
:1040500072E0402B57D000D96EE0302B63D06BD884
:10406000202B60D068D8002B5DD0102B5BD063E094
:104070007B6818683B6899683B685A683B68DB68EE
:1040800000F072F97B681B689B68BB60BB68772295
:104090001343BB607B681B68BA689A6052E07B6818
:1040A00018683B6899683B685A683B68DB6800F0B1
:1040B0005BF97B681B689A687B681B688021C90173
:1040C0000A439A603EE07B6818683B6859683B6821
:1040D000DB681A0000F0CEF87B681B6850211800DE
:1040E00000F028F92EE07B6818683B6859683B6847
:1040F000DB681A0000F0ECF87B681B686021180090
:1041000000F018F91EE07B6818683B6859683B6846
:10411000DB681A0000F0AEF87B681B6840211800CD
:1041200000F008F90EE07B681A683B681B6819000C
:10413000100000F0FFF805E00F23FB1801221A70B1
:1041400000E0C0467B683922012199547B683822FF
:10415000002199540F23FB181B781800BD4604B0AA
:1041600080BDC046FF00FFFF80B582B000AF786021
:10417000C046BD4602B080BD80B582B000AF786059
:10418000C046BD4602B080BD80B582B000AF786049
:10419000C046BD4602B080BD80B582B000AF786039
:1041A000C046BD4602B080BD80B582B000AF786029
:1041B000C046BD4602B080BD80B584B000AF786017
:1041C00039607B681B68FB607A688023DB059A4254
:1041D0000BD07B68234A934207D07B68224A9342E4
:1041E00003D07B68214A934208D1FB687022934335
:1041F000FB603B685B68FA681343FB607A68802366
:10420000DB059A420BD07B68164A934207D07B6845
:10421000154A934203D07B68144A934208D1FB6845
:10422000134A1340FB603B68DB68FA681343FB608A
:10423000FB68802293431A003B681B691343FB60B1
:104240007B68FA681A603B689A687B68DA623B6848
:104250001A687B689A627B6801225A61C046BD4633
:1042600004B080BD0004004000080140001401407B
:10427000FFFCFFFF80B586B000AFF860B9607A60E0
:10428000FB681B6A7B61FB681B6A012293431A006F
:10429000FB681A62FB689B693B613B69F0229343B0
:1042A0003B617B681B013A6913433B617B690A22CE
:1042B00093437B617A69BB6813437B61FB683A690E
:1042C0009A61FB687A691A62C046BD4606B080BD35
:1042D00080B586B000AFF860B9607A60FB681B6A91
:1042E000102293431A00FB681A62FB689B697B618A
:1042F000FB681B6A3B617B690D4A13407B617B68ED
:104300001B037A6913437B613B69A02293433B61A2
:10431000BB681B013A6913433B61FB687A699A6188
:10432000FB683A691A62C046BD4606B080BDC04609
:10433000FF0FFFFF80B584B000AF786039607B6805
:104340009B68FB60FB6870229343FB603A68FB68E4
:10435000134307221343FB607B68FA689A60C046E8
:10436000BD4604B080BD000080B586B000AFF860E7
:10437000B9607A603B60FB689B687B617B69094A36
:1043800013407B613B681A027B681A43BB68134386
:104390007A6913437B61FB687A699A60C046BD46BF
:1043A00006B080BDFF00FFFF80B584B000AF78602D
:1043B00039607B6838229B5C012B01D1022347E0E6
:1043C0007B683822012199547B6839220221995453
:1043D0007B681B685B68FB607B681B689B68BB60D5
:1043E000FB6870229343FB603B681B68FA681343C9
:1043F000FB607B681B68FA685A607B681A688023D8
:10440000DB059A420ED07B681B68134A934209D0A1
:104410007B681B68114A934204D07B681B68104A72
:1044200093420CD1BB6880229343BB603B685B68BE
:10443000BA681343BB607B681B68BA689A607B6884
:104440003922012199547B68382200219954002394
:104450001800BD4604B080BD0004004000080140C3
:104460000014014080B582B000AF78607B68002BFB
:1044700001D1012344E07B68DB6F002B07D17B680F
:104480007822002199547B681800FDF745FB7B6872
:104490002422DA677B681B681A687B681B68012125
:1044A0008A431A607B68180000F0B4FC0300012BFB
:1044B00001D1012324E07B685B6A002B03D07B6879
:1044C000180000F045FF7B681B685A687B681B6812
:1044D0000D490A405A607B681B689A687B681B68B4
:1044E0002A218A439A607B681B681A687B681B686C
:1044F00001210A431A607B68180000F0DDFF030009
:104500001800BD4602B080BDFFB7FFFF80B58AB07E
:1045100002AFF860B9603B60BB1D1A80FB68DB6FBF
:10452000202B00D08CE0BB68002B03D0BB1D1B8868
:10453000002B01D1012384E0FB689A6880235B0192
:104540009A4209D1FB681B69002B05D1BB68012287
:10455000134001D0012374E0FB68842200219950AC
:10456000FB682122DA67FDF70DFC03007B61FB6825
:10457000BA1D502112885A52FB68BA1D5221128866
:104580005A52FB689A6880235B019A4208D1FB6803
:104590001B69002B04D10023FB61BB68BB6103E0F6
:1045A000BB68FB610023BB612FE07A69F8683B6858
:1045B000009313000022802101F026F8031E04D08E
:1045C000FB682022DA6703233BE0FB69002B0BD159
:1045D000BB691B881A00FB681B68D205D20D9A6262
:1045E000BB690233BB6107E0FB691A78FB681B6893
:1045F0009A62FB690133FB61FB6852229B5A9BB2B2
:10460000013B99B2FB6852229952FB6852229B5A95
:104610009BB2002BC9D17A69F8683B6800931300FC
:104620000022402100F0F0FF031E04D0FB6820228E
:10463000DA67032305E0FB682022DA67002300E045
:1046400002231800BD4608B080BD000080B58AB0C6
:1046500002AFF860B9603B60BB1D1A80FB68802226
:104660009B58202B00D0D0E0BB68002B03D0BB1D93
:104670001B88002B01D10123C8E0FB689A688023C6
:104680005B019A4209D1FB681B69002B05D1BB680D
:104690000122134001D00123B8E0FB6884220021ED
:1046A0009950FB68802222219950FB6800221A66EB
:1046B000FDF768FB03007B61FB68BA1D5821128877
:1046C0005A52FB68BA1D5A2112885A52FB689A68DE
:1046D00080235B019A420DD1FB681B69002B04D13A
:1046E000FB685C224B4999522EE0FB685C22FF215B
:1046F000995229E0FB689B68002B0DD1FB681B6970
:10470000002B04D1FB685C22FF2199521CE0FB685E
:104710005C227F21995217E0FB689A6880235B0531
:104720009A420DD1FB681B69002B04D1FB685C2207
:104730007F21995208E0FB685C223F21995203E0F7
:10474000FB685C22002199521223FB18FA685C2155
:10475000525A1A80FB689A6880235B019A4208D1FA
:10476000FB681B69002B04D10023FB61BB68BB61A4
:1047700003E0BB68FB610023BB613AE07A69F8683B
:104780003B68009313000022202100F03DFF031E30
:1047900005D0FB68802220219950032336E0FB6975
:1047A000002B0ED1FB681B685B6A9BB21222BA1801
:1047B000128813409AB2BB691A80BB690233BB618D
:1047C0000EE0FB681B685B6ADBB21222BA18128823
:1047D000D2B21340DAB2FB691A70FB690133FB6194
:1047E000FB685A229B5A9BB2013B99B2FB685A2242
:1047F0009952FB685A229B5A9BB2002BBED1FB6890
:10480000802220219950002300E002231800BD4699
:1048100008B080BDFF01000090B5ABB000AF78607C
:104820007B681B68DB69A422B9180B607B681B6876
:104830001B68A02039180B607B681B689B689C2153
:1048400079180B601100BB181B68994A1340982215
:10485000BC182360BB181B68002B14D17B181B6885
:10486000202213400FD03B181B68202213400AD08F
:104870007B689B6E002B00D1A0E27B689B6E7A6800
:10488000100098479AE29823FB181B68002B00D170
:1048900014E19C23FB181B680122134006D1A023BE
:1048A000FB181B68834A134000D107E1A423FB18BF
:1048B0001B680122134012D0A023FB181A68802322
:1048C0005B0013400BD07B681B6801221A627B6877
:1048D00084229B5801221A437B6884215A50A423C6
:1048E000FB181B680222134011D09C23FB181B6885
:1048F000012213400BD07B681B6802221A627B687E
:1049000084229B5804221A437B6884215A50A42392
:10491000FB181B680422134011D09C23FB181B6852
:10492000012213400BD07B681B6804221A627B684B
:1049300084229B5802221A437B6884215A50A42364
:10494000FB181B680822134017D0A023FB181B6814
:104950002022134005D19C23FB181B680122134021
:104960000BD07B681B6808221A627B6884229B58E4
:1049700008221A437B6884215A50A423FB181A6822
:1049800080231B01134013D0A023FB181A68802337
:10499000DB0413400CD07B681B68802212011A6272
:1049A0007B6884229B5820221A437B6884215A50BA
:1049B0007B6884229B58002B00D101E2A423FB18C2
:1049C0001B68202213400ED0A023FB181B68202256
:1049D000134008D07B689B6E002B04D07B689B6ED5
:1049E0007A68100098477B6884229B5894217A1833
:1049F00013607B681B689B6840221340402B04D0E7
:104A00007B181B682822134047D07B68180000F0F1
:104A100065FE7B681B689B6840221340402B37D1A2
:104A2000EFF310833B663B6E90203A18136001232E
:104A30007B667B6E83F31088C0467B681B689A6830
:104A40007B681B6840218A439A603B181B68BB66E1
:104A5000BB6E83F31088C0467B685B6F002B12D05F
:104A60007B685B6F144A9A637B685B6F1800FDF785
:104A7000D5FA031E1AD07B685B6F9A6B7B685B6FFD
:104A80001800904712E07B68180000F0AFF90DE0C5
:104A90007B68180000F0AAF908E07B68180000F0B5
:104AA000A5F97B6884220021995089E1C04687E1FD
:104AB0000F08000020010004A55700087B681B6E4A
:104AC000012B00D03BE1A423FB181B6810221340EC
:104AD00000D134E1A023FB181B681022134000D141
:104AE0002DE17B681B6810221A627B681B689B683B
:104AF00040221340402B00D0A1E07B685B6F1B6815
:104B00005A687E217B181A807B181B88002B00D1E5
:104B100058E17B6858229B5A7A1812889A4200D32F
:104B200050E17B687A185A2112885A527B685B6F71
:104B30001B681B68202213406FD1EFF310833B6387
:104B40003B6BBB6701237B637B6B83F31088C046A1
:104B50007B681B681A687B681B689E490A401A605C
:104B6000BB6FBB63BB6B83F31088C046EFF310834E
:104B7000FB63FB6B7B6701233B643B6C83F3108817
:104B8000C0467B681B689A687B681B6801218A4362
:104B90009A607B6F7B647B6C83F31088C046EFF375
:104BA0001083BB64BB6C3B670123FB64FB6C83F32A
:104BB0001088C0467B681B689A687B681B68402128
:104BC0008A439A603B6F3B653B6D83F31088C04618
:104BD0007B688022202199507B6800221A66EFF3BF
:104BE00010837B657B6DFB660123BB65BB6D83F327
:104BF0001088C0467B681B681A687B681B68102198
:104C00008A431A60FB6EFB65FB6D83F31088C04618
:104C10007B685B6F1800FDF7C1F97B6802225A665A
:104C20007B6858229A5A7B685A215B5A9BB2D31AE6
:104C30009AB27B681100180000F0E0F8C2E07B68CF
:104C40005822995A7B685A229B5A9AB28E203B1856
:104C50008A1A1A807B685A229B5A9BB2002B00D179
:104C6000B2E03B181B88002B00D1ADE0EFF31083BE
:104C7000FB60FB6888243A19136001233B613B69A0
:104C800083F31088C0467B681B681A687B681B68C2
:104C900051490A401A603B191B687B617B6983F3A9
:104CA0001088C046EFF31083BB61BB6984243A19B6
:104CB00013600123FB61FB6983F31088C0467B68A6
:104CC0001B689A687B681B6801218A439A603B19BC
:104CD0001B683B623B6A83F31088C0467B68802276
:104CE000202199507B6800221A667B6800229A6610
:104CF000EFF310837B627B6A80243A1913600123EF
:104D0000BB62BB6A83F31088C0467B681B681A6865
:104D10007B681B6810218A431A603B191B68FB6281
:104D2000FB6A83F31088C0467B6802225A663B18F0
:104D30001A887B681100180000F060F844E0A42392
:104D4000FB181A6880235B03134010D09C23FB18C8
:104D50001A688023DB03134009D07B681B6880221C
:104D600052031A627B68180000F05EFD2FE0A42356
:104D7000FB181B68802213400FD0A023FB181B6870
:104D80008022134009D07B68DB6E002B1ED07B682D
:104D9000DB6E7A681000984718E0A423FB181B68A4
:104DA0004022134013D0A023FB181B68402213405D
:104DB0000DD07B68180000F00CFD08E0C04606E04E
:104DC000C04604E0C04602E0C04600E0C046BD4622
:104DD0002BB090BDFFFEFFFFDFFEFFFF80B582B06E
:104DE00000AF7860C046BD4602B080BD80B582B0DD
:104DF00000AF7860C046BD4602B080BD80B582B0CD
:104E000000AF78600A00BB1C1A80C046BD4602B0E5
:104E100080BD0000B0B58EB000AFF8611A23182233
:104E20009B18DB1900221A70FB699A68FB691B69E1
:104E30001A43FB695B691A43FB69DB6913437B63B4
:104E4000FB691B681B68C34A13401900FB691B6898
:104E50007A6B0A431A60FB691B685B68BE4A1340A1
:104E60001900FB69DA68FB691B680A435A60FB6931
:104E70009B697B63FB691B68B84A934204D0FB695A
:104E80001B6A7A6B13437B63FB691B689B68B44A9C
:104E900013401900FB691B687A6B0A439A60FB692F
:104EA0001B68B04A934231D1AF4BDB6C03221340F5
:104EB000032B1DD023D8022B0CD020D8002B02D0DE
:104EC000012B0ED01BE01B2318229B18DB1901229B
:104ED0001A70B4E01B2318229B18DB1902221A70E7
:104EE000ADE01B2318229B18DB1904221A70A6E0E0
:104EF0001B2318229B18DB1908221A709FE01B2322
:104F000018229B18DB1910221A7098E0FB691B68A5
:104F1000964A934231D1944BDB6C0C2213400C2BFC
:104F20001DD023D8082B0CD020D8002B02D0042B66
:104F30000ED01BE01B2318229B18DB1900221A70CD
:104F40007DE01B2318229B18DB1902221A7076E0E1
:104F50001B2318229B18DB1904221A706FE01B23F5
:104F600018229B18DB1908221A7068E01B231822EC
:104F70009B18DB1910221A7061E0FB691B687C4AE0
:104F8000934206D11B2318229B18DB1900221A70AA
:104F900055E0FB691B68774A934206D11B23182210
:104FA0009B18DB1900221A7049E0FB691B686B4AE9
:104FB00093423ED16C4BDA6CC0231B011340C022DC
:104FC0001201934227D0C022120193422AD8802294
:104FD0001201934211D080221201934222D8002B59
:104FE00004D08022D20093420ED01BE01B23182253
:104FF0009B18DB1900221A7021E01B2318229B1832
:10500000DB1902221A701AE01B2318229B18DB19E5
:1050100004221A7013E01B2318229B18DB190822A4
:105020001A700CE01B2318229B18DB1910221A702F
:1050300005E01B2318229B18DB1910221A70FB694C
:105040001B68464A934200D09AE01B2318229B1803
:10505000DB191B78082B1DD020DC042B15D01DDCA0
:10506000002B02D0022B05D018E0FDF7C9FF03008A
:10507000FB621CE03C4B1B681022134002D03E4BED
:10508000FB6214E03D4BFB6211E0FDF709FF0300FA
:10509000FB620CE080231B02FB6208E00023FB6242
:1050A0001A2318229B18DB1901221A70C046FB6ACA
:1050B000002B00D133E1FB695A6813005B009B1899
:1050C000FA6A9A4205D3FB695B681B03FA6A9A4243
:1050D00006D91A2318229B18DB1901221A701EE127
:1050E000FB6A3B6100237B6139697A690B001B0E07
:1050F000100005021D430B001C02FB695B685B0886
:10510000BB600023FB60B868F96800196941FB695E
:105110005B683B6000237B603A687B68FBF780F844
:1051200002000B001300BB62BA6AC0239B009A42C4
:1051300009D3BA6A80235B039A4204D2FB691B68D5
:10514000BA6ADA60EBE01A2318229B18DB190122F5
:105150001A70E4E0F369FFEFFFCFFFFF0048004063
:10516000FFF4FFFF003801400010024000440040FF
:10517000004C00400050004000093D000024F400B5
:10518000FB69DA6980231B029A4200D070E01B237E
:1051900018229B18DB191B78082B22D89A00674B22
:1051A000D3181B689F46FDF72BFF0300FB6221E02D
:1051B000FDF73CFF0300FB621CE0614B1B68102203
:1051C000134002D05F4BFB6214E05F4BFB6211E0C7
:1051D000FDF766FE0300FB620CE080231B02FB620E
:1051E00008E00023FB621A2318229B18DB19012216
:1051F0001A70C046FB6A002B00D190E0FB6A5A008F
:10520000FB695B685B08D218FB695B6819001000DA
:10521000FAF77AFF0300BB62BB6A0F2B21D9BA6A87
:1052200080235B029A421CD2BB6A9AB20E201824D9
:105230000319DB190F218A431A80BB6A5B089BB2F2
:105240000722134099B20319DB190219D2191288E7
:105250000A431A80FB691B680219D2191288DA60A6
:105260005DE01A2318229B18DB1901221A7056E000
:105270001B2318229B18DB191B78082B22D89A00B5
:10528000324BD3181B689F46FDF7BAFE0300FB6242
:1052900021E0FDF7CBFE0300FB621CE0284B1B68FE
:1052A0001022134002D0274BFB6214E0264BFB6216
:1052B00011E0FDF7F5FD0300FB620CE080231B020B
:1052C000FB6208E00023FB621A2318229B18DB19FB
:1052D00001221A70C046FB6A002B20D0FB695B6874
:1052E0005A08FB6AD218FB695B6819001000FAF7CC
:1052F0000BFF0300BB62BB6A0F2B0AD9BA6A80237B
:105300005B029A4205D2BB6A9AB2FB691B68DA60FB
:1053100005E01A2318229B18DB1901221A70FB6979
:1053200000229A66FB690022DA661A2318229B186B
:10533000DB191B781800BD460EB0B0BD0C59000833
:105340000010024000093D000024F400305900081C
:1053500080B582B000AF78607B685B6A0122134041
:105360000BD07B681B685B684A4A134019007B6856
:105370009A6A7B681B680A435A607B685B6A0222F0
:1053800013400BD07B681B685B68434A13401900CD
:105390007B68DA6A7B681B680A435A607B685B6AD1
:1053A000042213400BD07B681B685B683B4A1340A8
:1053B00019007B681A6B7B681B680A435A607B681C
:1053C0005B6A082213400BD07B681B685B68344A19
:1053D000134019007B685A6B7B681B680A435A604C
:1053E0007B685B6A102213400BD07B681B689B684C
:1053F0002C4A134019007B689A6B7B681B680A4330
:105400009A607B685B6A202213400BD07B681B6824
:105410009B68254A134019007B68DA6B7B681B6820
:105420000A439A607B685B6A402213401DD07B6808
:105430001B685B681D4A134019007B681A6C7B6807
:105440001B680A435A607B681A6C80235B039A428C
:105450000BD17B681B685B68154A134019007B6899
:105460005A6C7B681B680A435A607B685B6A8022BF
:1054700013400BD07B681B685B680E4A1340190011
:105480007B689A6C7B681B680A435A60C046BD46BD
:1054900002B080BDFFFFFDFFFFFFFEFFFFFFFBFF30
:1054A000FF7FFFFFFFEFFFFFFFDFFFFFFFFFEFFFCC
:1054B000FFFF9FFFFFFFF7FF80B592B002AF78605C
:1054C0007B68842200219950FCF75CFC0300FB639D
:1054D0007B681B681B6808221340082B2CD1FB6BD0
:1054E000802291037868464A0092002200F08CF8EE
:1054F000031E21D0EFF310837B627B6ABB63012321
:10550000BB62BB6A83F31088C0467B681B681A685D
:105510007B681B6880218A431A60BB6BFB62FB6A55
:1055200083F31088C0467B682022DA677B68782284
:105530000021995403235FE07B681B681B680422E9
:105540001340042B46D1FB6B8022D10378682C4A90
:105550000092002200F058F8031E3BD0EFF31083B6
:10556000FB60FB687B6301233B613B6983F310882D
:10557000C0467B681B681A687B681B6821490A4023
:105580001A607B6B7B617B6983F31088C046EFF305
:105590001083BB61BB693B630123FB61FB6983F340
:1055A0001088C0467B681B689A687B681B6801216D
:1055B0008A439A603B6B3B623B6A83F31088C04628
:1055C0007B688022202199507B68782200219954A1
:1055D000032311E07B682022DA677B688022202188
:1055E00099507B6800221A667B6800225A667B68A5
:1055F00078220021995400231800BD4610B080BDC8
:10560000FFFFFF01DFFEFFFF80B584B000AFF86051
:10561000B9603B60FB1D1A704BE0BB69013348D099
:10562000FCF7B0FB02003B68D31ABA699A4202D376
:10563000BB69002B01D103234BE0FB681B681B688F
:105640000422134035D0FB681B68DB690822134035
:10565000082B11D1FB681B6808221A62FB6818002E
:1056600000F03CF8FB68842208219950FB687822FE
:105670000021995401232CE0FB681B68DA69802320
:105680001B011A4080231B019A4212D1FB681B6840
:10569000802212011A62FB68180000F01FF8FB68F4
:1056A000842220219950FB687822002199540323F9
:1056B0000FE0FB681B68DB69BA681340BA68D31A4D
:1056C0005A425341DBB21A00FB1D1B789A42A4D008
:1056D00000231800BD4604B080BD000080B58EB028
:1056E00000AF7860EFF310837B617B697B630123FC
:1056F000BB61BB6983F31088C0467B681B681A686E
:105700007B681B6826490A401A607B6BFB61FB695A
:1057100083F31088C046EFF310833B623B6A3B6320
:1057200001237B627B6A83F31088C0467B681B6819
:105730009A687B681B6801218A439A603B6BBB6255
:10574000BB6A83F31088C0467B681B6E012B18D19F
:10575000EFF31083BB60BB68FB620123FB60FB6857
:1057600083F31088C0467B681B681A687B681B68D7
:1057700010218A431A60FB6A3B613B6983F31088FE
:10578000C0467B688022202199507B6800221A66DF
:105790007B6800229A66C046BD460EB080BDC046FA
:1057A000DFFEFFFF80B584B000AF78607B689B6A46
:1057B000FB60FB685A2200219952FB6852220021AB
:1057C0009952FB681800FFF711FBC046BD4604B0B4
:1057D00080BD80B586B000AF7860EFF31083BB600A
:1057E000BB687B610123FB60FB6883F31088C046C4
:1057F0007B681B681A687B681B6840218A431A60B3
:105800007B693B613B6983F31088C0467B6820223B
:10581000DA677B680022DA667B681800FFF7DEFA39
:10582000C046BD4606B080BD80B582B000AF78608E
:10583000C046BD4602B080BD70B500260C4D0D4C73
:10584000641BA410A64209D1002600F021F80A4DDD
:105850000A4C641BA410A64205D170BDB300EB58DE
:1058600098470136EEE7B300EB5898470136F2E768
:105870005C5900085C5900085C5900086059000830
:1058800003008218934200D1704719700133F9E781
:10589000F8B5C046F8BC08BC9E467047F8B5C0468F
:0858A000F8BC08BC9E467047ED
:1058A800F0080008DE080008BC080008E608000840
:1058B800BC080008BE0B0008BC080008E608000881
:1058C800DE080008DE080008BE0B0008E60800082D
:1058D800A8080008A8080008A8080008340C000850
:1058E8000000000000000000010203040607080988
:1058F8000000000001020304030406080C1018202D
:1059080030000000A6510008B0510008BA51000844
:10591800E2510008D0510008E2510008E2510008A5
:10592800E2510008DA510008885200089252000833
:105938009C520008C4520008B2520008C452000821
:0C594800C4520008C4520008BC52000801
:0859540068A9FF7F01000000BB
:04595C00E900000856
:04596000C10000087A
:0C59640000002000040000000100000012
:0400000508001C656E
:00000001FF
